:1000000019C1000098C4000030C100002EC10000DA
:100010002CC100002AC1000028C10000AFC40000AC
:1000200024C10000BBC4000020C100001EC10000AC
:100030001CC100001AC1000018C1000016C1000058
:1000400015C1000012C10000DCC400000EC1000098
:100050000CC100000AC1000008C1000006C1000078
:1000600004C1000002C100004552524F523A3035DF
:100070003A52656C61792031307320626C61636B38
:100080006F757420616374697665004552524F52F2
:100090003A30343A496E76616C696420636F6E74ED
:1000A000726F6C73207374617465004552524F52C5
:1000B0003A30333A506172616D65746572206F75C4
:1000C00074206F662072616E6765004552524F5210
:1000D0003A30323A556E6B6E6F776E207061726196
:1000E0006D65746572004552524F523A30313A4D47
:1000F000697373696E6720706172616D6574657292
:10010000004552524F523A30303A556E6B6E6F770F
:100110006E20636F6D6D616E64004F4B007B2274C7
:10012000797065223A22737769746368696E672211
:100130002C2272656C617973223A5B2248454154E6
:10014000222C224348494C4C222C22415558312222
:100150005D2C22747269616373223A5B22415558A7
:1001600032225D7D0022436F707972696768742066
:10017000286329203230313720416E647920427261
:100180006F776E22007B22686172647761726522EC
:100190003A312C226669726D77617265223A317D3F
:1001A0000022416E6479277320576F726B73686FFA
:1001B000702042726577657279207377697463681D
:1001C000696E6720636F6E74726F6C6C657222006B
:1001D00006090B0D0E1011121315161717181A1AFF
:1001E0001B1C1D1D1F1F2021212223242425262600
:1001F000272729292A2A2B2B2C2D2E2E2F2F303141
:10020000313233333435353636373839393A3A3B8B
:100210003B3D3D3E3E3F40404142434344454547D0
:100220004748494A4A4C4D4D4E4F515253545657E8
:10023000595B5E0011241FBECFEFD8E0DEBFCDBFFB
:1002400011E0A0E0B1E0EAE4F1E102C005900D9216
:10025000A234B107D9F711E0A2E4B1E001C01D92C8
:10026000A03CB107E1F7DFD26EC7CACE1F920F9252
:100270000FB60F9211248F939F93AF93BF938091EA
:1002800044018F5F8093440180914401837099F40D
:100290008091450190914601A0914701B09148019C
:1002A0000196A11DB11D8093450190934601A09335
:1002B0004701B093480186B58A5F86BDBF91AF9173
:1002C0009F918F910F900FBE0F901F901895F894EB
:1002D00060914501709146018091470190914801DC
:1002E00078940895CF92DF92EF92FF926B017C0198
:1002F000EEDF6C197D098E099F09FF90EF90DF906A
:10030000CF90089580E090E04CD685359A4AA9F0C8
:1003100068E085E090E04AD664E084E090E046D66C
:1003200062E083E090E042D661E082E090E03ED679
:1003300065E57AEA80E090E047C60895CF92DF92C3
:10034000EF92FF921F93CF93DF93EC01162FBFDF45
:10035000DC01CB018C509E4FAF4FBF4FC090450189
:10036000D0904601E0904701F0904801C816D906A8
:10037000EA06FB0698F3112319F0FE01849101C0EF
:1003800088819091C00095FFFCCF8093C600219694
:100390008111F1CF8091C00085FFFCCF8DE080936B
:1003A000C6008091C00085FFFCCF8AE08093C60024
:1003B0001092BE011092BF01DF91CF911F91FF906B
:1003C000EF90DF90CF90089561E08AE191E0B6CFA1
:1003D0000895EF92FF920F931F93CF93DF937C01C9
:1003E00060E071E080E090E0ACD3009721F461E040
:1003F00086EE90E017C088D38C01D82F853620F088
:1004000061E08BEA90E00EC0F701C081882361F0C3
:10041000C16082E090E0BDD58C238C1731F061E0A3
:100420008BE890E08BDF1FC0CE7F8FEF800F83368D
:1004300028F4F801FF27E153FE4FD491F89464E6C5
:1004400070E09B012D1B310942E4429FC001439F94
:10045000900D1124FBD260935801D09359017894E8
:10046000B3DFF701C083CDB7DEB7E6E02AC3A4E06F
:10047000B0E0ECE3F2E00AC38E010F5F1F4F84E0AF
:10048000F82EF00E60E071E080E090E05AD3009723
:1004900029F461E086EE90E051DF17C035D3F80112
:1004A00081938F01FE12EECF698185E090E07ED5C9
:1004B0006A8184E090E07AD56B8183E090E076D524
:1004C0006C8182E090E072D57FDF2496E5E0FAC28D
:1004D000EF92FF920F931F93CF93DF937C018B01D9
:1004E00060E071E080E090E02CD3EC01009721F413
:1004F00061E086EE90E042C062E071E025D3892B96
:10050000F9F4F801D081D86085E090E042D5C82F99
:10051000CD23CD1721F061E08BE890E02FC0F701EB
:1005200060817181828193816115710581059105D9
:10053000B9F0D8DE613177428105910588F41BC09E
:1005400065E071E0CE0100D3892B31F4F801C08160
:10055000C77F299839DF0CC061E08BEC90E00EC0BA
:10056000299A32DFB4DEF70160837183828393833B
:10057000F801C08304C061E088E690E0DFDECDB71B
:10058000DEB7E6E09EC2EF92FF920F931F93CF93E8
:10059000DF937C018B0160E071E080E090E0D1D2DC
:1005A000EC01009721F461E086EE90E042C062E049
:1005B00071E0CAD2892BF9F4F801D081D46084E0CB
:1005C00090E0E7D4C82FCD23CD1721F061E08BE870
:1005D00090E02FC0F7016081718182819381611564
:1005E000710581059105B9F07DDE613177428105A4
:1005F000910588F41BC065E071E0CE01A5D2892B7E
:1006000031F4F801C081CB7F2A98DEDE0CC061E0B6
:100610008BEC90E00EC02A9AD7DE59DEF70160839A
:10062000718382839383F801C08304C061E088E60C
:1006300090E084DECDB7DEB7E6E043C2EF92FF92F2
:100640000F931F93CF93DF937C018B0160E071E0E8
:1006500080E090E076D2EC01009721F461E086EE34
:1006600090E042C062E071E06FD2892BF9F4F801AA
:10067000D081D26083E090E08CD4C82FCD23CD17F9
:1006800021F061E08BE890E02FC0F701608171817B
:10069000828193816115710581059105B9F022DE92
:1006A000613177428105910588F41BC065E071E0F6
:1006B000CE014AD2892B31F4F801C081CD7F289830
:1006C00083DE0CC061E08BEC90E00EC0289A7CDEEB
:1006D000FEDDF7016083718382839383F801C08319
:1006E00004C061E088E690E029DECDB7DEB7E6E041
:1006F000E8C10F931F93CF93DF932091BF01222373
:1007000009F48CC08C0160E071E08AE591E019D2B7
:10071000EC01BC0189E091E017D2892B31F4B801DA
:10072000645F7F4FC801D4DE79C0BE018EE091E0E6
:100730000BD2892B39F4B801645F7F4FC80104964E
:1007400022DF6CC0BE0184E191E0FED1892B39F437
:10075000B801645F7F4FC801089670DF5FC0BE01BB
:1007600089E191E0F1D1892B21F4C8010C9631DEA9
:1007700055C0BE018FE391E0E7D1892B21F461E000
:1007800081EA91E04AC0BE018EE191E0DDD1892B82
:1007900021F461E085E691E040C0BE0183E291E092
:1007A000D3D1892B21F461E085E891E036C0BE0108
:1007B00087E291E0C9D1892B21F461E08DE191E0DC
:1007C0002CC0BE018CE291E0BFD1892BD9F47FDD32
:1007D0009F938F937F936F9383E391E09F938F9386
:1007E00089E491E09F938F93F1D160E089E491E0F7
:1007F000A5DD8DB79EB708960FB6F8949EBF0FBEC5
:100800008DBF0CC0BE018CE391E09ED1892B11F409
:100810002EDE04C061E081E091E090DDDF91CF91B8
:100820001F910F910895ADE0B0E0E8E1F4E030C130
:1008300014BE18E10FB6F894109360001092600097
:100840000FBEF89483E390E09093C5008093C400BA
:100850008091C10088618093C10086E08093C200CE
:100860008091C10080688093C100219A229A209AC9
:100870003B9A529892E09093690081E08DBB109270
:1008800045011092460110924701109248011092C2
:10089000440114BC95BD80936E001092B10080910C
:1008A000700083608093700019821A821B821C8200
:1008B0001D821E821F82188619861A861B861C8638
:1008C0001D8620DD29982A98289843988FE00FB636
:1008D000F894A895109360000FBE80936000789400
:1008E000CE01019606DFA895FBCF809159018823A0
:1008F00049F080915901843639F08091580188235C
:1009000019F00DC043980895439A8091580180933F
:10091000B3001092B20087E08093B10008958091F7
:100920005801833490F3809158018F3458F782E452
:1009300080935801EACF1F920F920FB60F921124A5
:100940002F933F934F935F936F937F938F939F93D7
:10095000AF93BF93EF93FF93C8DFFF91EF91BF91E8
:10096000AF919F918F917F916F915F914F913F9147
:100970002F910F900FBE0F901F9018951F920F92FE
:100980000FB60F9211248F93439A8CEF8093B2008D
:100990008F910F900FBE0F901F9018951F920F927E
:1009A0000FB60F92112443981092B1000F900FBE12
:1009B0000F901F9018959091BE01943608F52091E4
:1009C000BF0121111DC0292F30E08A3049F499233D
:1009D00079F0F901E75AFE4F80818D3049F40BC060
:1009E0009F5F9093BE01F901E65AFE4F8083089500
:1009F000F901E65AFE4F108281E08093BF0108950D
:100A000008951F920F920FB60F9211242F933F93C8
:100A10004F935F936F937F938F939F93AF93BF9306
:100A2000EF93FF938091C600C6DFFF91EF91BF91D6
:100A3000AF919F918F917F916F915F914F913F9176
:100A40002F910F900FBE0F901F90189597FB072EB8
:100A500016F4009406D077FD08D042D007FC05D0EC
:100A60003EF4909581959F4F0895709561957F4FC5
:100A700008952F923F924F925F926F927F928F9242
:100A80009F92AF92BF92CF92DF92EF92FF920F931D
:100A90001F93CF93DF93CDB7DEB7CA1BDB0B0FB627
:100AA000F894DEBF0FBECDBF09942A8839884888E4
:100AB0005F846E847D848C849B84AA84B984C8847A
:100AC000DF80EE80FD800C811B81AA81B981CE0F71
:100AD000D11D0FB6F894DEBF0FBECDBFED01089556
:100AE000AA1BBB1B51E107C0AA1FBB1FA617B70754
:100AF00010F0A61BB70B881F991F5A95A9F7809570
:100B00009095BC01CD010895FC0188279927E894B0
:100B100021912032E9F3293010F02E30C8F32B3226
:100B200039F02D3231F4689403C048D0820F911D02
:100B3000219120532A30C8F31EF4909581959F4F40
:100B4000089542E451E013C0FB01DC018D91813432
:100B50001CF08B350CF4805E619161341CF06B35B8
:100B60000CF4605E861B611189F3990B0895FA01FC
:100B7000A191B081009719F41097E1F0CD01DC014B
:100B8000CD010D90002011F4C00113C0FB01219193
:100B9000222319F02015D9F7F3CFFB01219120155D
:100BA00019F41E92119606C02223C1F70D90002061
:100BB000A1F7D001FA01A193B08308957AE0979F3D
:100BC000902D879F802D910D11240895AEE0B0E007
:100BD000EBEEF5E05CCF0D891E8986E08C831A83ED
:100BE00009838FEF9FE79E838D83AE01475E5F4F42
:100BF0006F89788DCE01019609D02F813885F80153
:100C0000E20FF31F10822E96E4E05DCFACE0B0E07F
:100C1000EBE0F6E02ECF7C016B018A01FC0117822C
:100C20001682838181FFB0C1CE0101964C01F7018C
:100C30009381F60193FD859193FF81916F01882344
:100C400009F49EC1853239F493FD859193FF81911A
:100C50006F01853221F4B70190E0CFD1E8CF512C5C
:100C6000312C20E02032A0F48B3269F030F4803255
:100C700059F0833269F420612CC08D3239F0803311
:100C800039F4216026C02260246023C0286021C07E
:100C900027FD27C030ED380F3A3078F426FF06C024
:100CA000FAE05F9E300D1124532E13C08AE0389E67
:100CB000300D1124332E20620CC08E3221F426FD1B
:100CC0005FC1206406C08C3611F4206802C08836EB
:100CD00041F4F60193FD859193FF81916F0181119C
:100CE000C1CF982F9F7D9554933028F40C5F1F4FF0
:100CF000FFE3F9830DC0833631F0833771F083351C
:100D000009F057C021C0F801808189830E5F1F4F11
:100D100044244394512C540114C03801F2E06F0E66
:100D2000711CF801A080B18026FF03C0652D70E022
:100D300002C06FEF7FEFC5012C8754D12C018301D6
:100D40002C852F77222E16C03801F2E06F0E711C11
:100D5000F801A080B18026FF03C0652D70E002C0BD
:100D60006FEF7FEFC5012C8732D12C012C852068D5
:100D7000222E830123FC19C0832D90E048165906CA
:100D8000A0F4B70180E290E038D13A94F5CFF501B4
:100D900027FC859127FE81915F01B70190E02DD15D
:100DA00031103A94F1E04F1A51084114510479F787
:100DB000DEC0843611F0893631F5F80127FF07C00F
:100DC00060817181828193810C5F1F4F08C06081B7
:100DD0007181882777FD8095982F0E5F1F4F2F76A2
:100DE000722E97FF09C090958095709561957F4F01
:100DF0008F4F9F4F2068722E2AE030E0A40135D13A
:100E0000A82EA81843C0853729F42F7EB22E2AE0D9
:100E100030E025C0F22FF97FBF2E8F36C1F018F4D5
:100E2000883579F0ADC0803719F0883721F0A8C037
:100E30002F2F2061B22EB4FE0DC08B2D8460B82EF2
:100E400009C024FF0AC09F2F9660B92E06C028E073
:100E500030E005C020E130E002C020E132E0F801DE
:100E6000B7FE07C060817181828193810C5F1F4F43
:100E700006C06081718180E090E00E5F1F4FA40189
:100E8000F4D0A82EA818FB2DFF777F2E76FE0BC07E
:100E9000372D3E7FA51450F474FE0AC072FC08C0C2
:100EA000372D3E7E05C0BA2C372D03C0BA2C01C0A9
:100EB000B52C34FF0DC0FE01EA0DF11D8081803399
:100EC00011F4397E09C032FF06C0B394B39404C054
:100ED000832F867809F0B39433FD12C030FF06C02B
:100EE0005A2CB31418F4530C5B18B32CB31460F4DD
:100EF000B70180E290E03C8780D0B3943C85F6CF88
:100F0000B31410F43B1801C0312C34FF11C0B701E9
:100F100080E390E03C8771D03C8532FF16C031FD04
:100F200003C088E790E002C088E590E0B7010CC0FC
:100F3000832F867851F031FF02C08BE201C080E23E
:100F400037FD8DE2B70190E058D0A51430F4B70119
:100F500080E390E052D05A94F8CFAA94F401EA0DBD
:100F6000F11D8081B70190E048D0A110F6CF332069
:100F700009F45DCEB70180E290E03FD03A94F7CF1C
:100F8000F7018681978102C08FEF9FEF2C96E2E1F7
:100F90008CCDF999FECF92BD81BDF89A992780B585
:100FA0000895A8E1B0E042E050E0BFC0262FF999D3
:100FB000FECF1FBA92BD81BD20BD0FB6F894FA9A3C
:100FC000F99A0FBE01960895F1DF272FF0CFFC01AB
:100FD0000590615070400110D8F7809590958E0F64
:100FE0009F1F0895FC016150704001900110D8F7D7
:100FF000809590958E0F9F1F08950F931F93CF9309
:10100000DF93FB01238121FD03C08FEF9FEF28C0F9
:1010100022FF16C04681578124813581421753072C
:1010200044F4A081B1819D012F5F3F4F3183208324
:101030008C93268137812F5F3F4F3783268310C0E3
:10104000EB01092F182F0084F185E02D0995892BDC
:10105000E1F68E819F8101969F838E83812F902F51
:10106000DF91CF911F910F910895FA01AA2728309F
:1010700051F1203181F1E8946F936E7F6E5F7F4F65
:101080008F4F9F4FAF4FB1E03ED0B4E03CD0670FE1
:10109000781F891F9A1FA11D680F791F8A1F911D34
:1010A000A11D6A0F711D811D911DA11D20D009F484
:1010B00068943F912AE0269F11243019305D3193C6
:1010C000DEF6CF010895462F4770405D4193B3E0AF
:1010D0000FD0C9F7F6CF462F4F70405D4A3318F056
:1010E000495D31FD4052419302D0A9F7EACFB4E007
:1010F000A6959795879577956795BA95C9F70097BF
:101100006105710508959B01AC010A2E069457955F
:10111000479537952795BA95C9F7620F731F841FB6
:10112000951FA01D0895DC01CB01FC01F999FECFAC
:1011300006C0F2BDE1BDF89A319600B40D9241505F
:0A1140005040B8F70895F894FFCF6F
:10114A0020004F4E004F4646004845415400434850
:10115A00494C4C0041555831004155583200434FD3
:10116A005059005645520043415053005550544976
:10117A004D45004F4B3A256C750D0A0056414C49B6
:02118A0044001F
:00000001FF
