:100000008FC10000AAC10000A8C10000A6C1000065
:10001000A4C10000A2C10000A0C100009EC1000058
:100020009CC100009AC1000098C10000F7C4000004
:1000300094C1000092C1000090C100008EC1000078
:1000400001C500008AC100000C94740A86C100003A
:1000500084C1000082C1000080C100007EC1000098
:100060007CC100007AC100006E616E00696E66009E
:100070004E414E494E495459494E46CDCCCC3D0A8D
:10008000D7233C17B7D13877CC2B329595E6241F70
:10009000B14F0A000020410000C84200401C462029
:1000A000BCBE4CCA1B0E5AAEC59D7400407A10F3FC
:1000B0005A00A0724E18090010A5D4E80000E87696
:1000C00048170000E40B54020000CA9A3B000000ED
:1000D000E1F505000080969800000040420F000006
:1000E00000A08601000000102700000000E80300C7
:1000F0000000006400000000000A00000000000191
:1001000000000000002C76D888DC674F0823DFC190
:10011000DFAE59E1B1B796E5E3E453C63AE651994B
:100120007696E8E6C28426EB898C9B62ED407C6F74
:10013000FCEFBC9C9F40F2BAA56FA5F490055A2A2B
:10014000F75C936B6CF9676DC11BFCE0E40D47FE37
:10015000F520E6B500D0ED902E030094357705002C
:1001600080841E080000204E0A000000C80C3333B3
:1001700033330F986E12831141EF8D2114893BE6C2
:100180005516CFFEE6DB18D1844B381BF77C1D904B
:100190001DA4BBE424203284725E228100C9F124B4
:1001A000ECA1E53D277E306D79335B5F707F7B7717
:1001B0001F0D3D4F476300000000000000000000DD
:1001C000000000000000000000000000000000002F
:1001D00000800180007E306D79335B5F707F7B0033
:1001E000000000000000771F4E3D4F47003706001B
:1001F000000E00007E6700005B00000000000000B1
:10020000000000000800771F0D3D4F477B170400DA
:10021000000E00151D670005000F000000003B00E8
:10022000000000000022436F7079726967687420D3
:10023000286329203230313720416E6479204272A0
:100240006F776E22004552524F523A30323A556E15
:100250006B6E6F776E20706172616D657465720090
:100260004552524F523A30313A4D697373696E6755
:1002700020706172616D65746572004552524F5213
:100280003A30303A556E6B6E6F776E20636F6D6DDE
:10029000616E6400224F4B22007B2268617264779A
:1002A000617265223A312C226669726D77617265DE
:1002B000223A317D007B2274797065223A22727471
:1002C00064222C22696D706C223A226C746332397C
:1002D0003836222C226E616D6573223A205B202213
:1002E000726564222C22626C7565225D7D0022415C
:1002F0006E6479277320576F726B73686F7020423A
:10030000726577657279205254442074656D70650A
:100310007261747572652073656E736F72732200FB
:1003200011241FBECFEFD8E0DEBFCDBF11E0A0E0AB
:10033000B1E0E2E9F2E202C005900D92A23EB107FF
:10034000D9F722E0A2EEB1E001C01D92A036B207BB
:10035000E1F70E945C0A0C94471152CEAFE0B0E086
:10036000E4EBF1E00C94B30A6C011B015A01FC01AF
:1003700017821682838181FF47C39E012F5F3F4F03
:100380004901F6019381F10193FD859193FF8191DC
:100390001F01882309F4E7C2853239F493FD859162
:1003A00093FF81911F01853239F4B60190E00E94DC
:1003B000131035015301E5CFF12C512C00E0003230
:1003C00038F48B3209F190F48032F9F0833209F17C
:1003D00007FD34C020ED280F2A3020F506FF1BC092
:1003E000FAE0FF9E200D1124F22E05C08D3279F027
:1003F000803371F70160F10193FD859193FF819145
:100400001F018111DCCF1AC002600460F4CF0860C4
:10041000F2CF0061F0CF3AE0539E200D1124522E0E
:100420000062E9CF8E3221F406FD9DC20064E3CF65
:100430008C3611F40068DFCF8836E9F29BEB980F19
:10044000933008F05FC00061805E06FD02C046E0A8
:10045000F42E102F1F73853609F05BC0106417FF50
:1004600061C08F2D9BE39F1508F48BE344244394D4
:10047000480E27E03501F4E06F0E711CF501608134
:10048000718182819381042DA4010E94C80E5C01B8
:10049000F981FC87F0FF03C00DE2F3FF07C00BE218
:1004A00011FD04C0012F047012FD00E22C852C7098
:1004B000E22E09F457C00111AAC2F3E0E12CF515B0
:1004C000A0F483E0E52CE81A13FD08C0B60180E231
:1004D00090E00E941310EA94E110F8CF002329F075
:1004E000B601802F90E00E9413103C8528E6A22ED2
:1004F00020E0B22E33FD04C09CE6A92E90E0B92E78
:10050000107122C09BE9980F933008F033C10F7E21
:100510009CCF863611F41068A2CFFF2009F49FCF3C
:10052000FA949DCFE7E02F2DEF1518F427E037E080
:10053000F32E412C9FCF11118052B60190E00E9402
:1005400013108FEFA81AB80AF50184918111F3CF27
:10055000EE2009F42FCFB60180E290E00E94131044
:10056000EA94F6CF17FF6FC04A0CFC85F4FF04C075
:100570008A81813309F44A9414140CF086C028E06F
:10058000241510F488E0482E85E090E017FF06C09F
:10059000C501B7FE02C090E080E00196011101960E
:1005A000FF2031F02F2D30E02F5F3F4F820F931F40
:1005B0005816190619F014F0E52CE81A812F8970E5
:1005C00011F4E11067C0002329F0B601802F90E0FC
:1005D0000E94131013FD02C0E11063C017FF7CC01E
:1005E0008501B7FE02C010E000E0C5018419910941
:1005F0002C016F2D70E0EE27FF27E61BF70BFF871E
:10060000EE870F3F100729F4B6018EE290E00E94BA
:100610001310A016B1060CF44BC0401651060CF096
:1006200047C0F501E01BF10BE80DF91D8181015078
:1006300011092E853F8502171307E4F1B60190E0FA
:100640000E941310DECF16FD9FCFEF2DF0E0EA15CC
:10065000FB0534F03CEFA3163FEFB3060CF0106837
:100660003296E80DF91D01C0FA94FF2019F082912D
:100670008033D1F317FF88CF442443944F0CFA14EE
:100680001B0431F02CF0FA187FCF442443947CCF24
:10069000F12C7ACFB60180E290E00E941310EA9428
:1006A00090CFB60180E390E00E941310EA9494CFBB
:1006B00080E3BDCFA016B10641F49A81963350F481
:1006C000953319F43C8534FF05C0B60190E00E94D3
:1006D00013103ECF81E3F9CF8A81813319F09C85D5
:1006E0009F7E9C87B60190E00E941310FF20A9F026
:1006F000B6018EE290E00E941310F394F394E2E0CE
:1007000001E00E0FE80DF92DF11D8081B60190E09A
:100710000E941310E02F0F11F3CF85E690E014FF35
:1007200002C085E490E0B6010E941310B7FC06C039
:10073000A114B104C1F4EC85E4FF15C0B194A194F7
:10074000B1088DE2B60190E00E94131080E32AE028
:10075000A216B10454F4B60190E00E941310B60141
:10076000C501C096B4CF8BE2EDCF8F5FFAE0AF1A30
:10077000B108EDCF8336C9F0833771F1833509F0C5
:100780005BC03501F2E06F0E711CF501A080B180F5
:100790006F2D70E006FD02C06FEF7FEFC5010E9474
:1007A000C00F9D878C8700680DC0350132E0630E55
:1007B000711CF5018081898321E030E03D872C8721
:1007C00054010F7703FD06C02C853D855216130694
:1007D00009F0A8F4E52C2BC0350132E0630E711C42
:1007E000F501A080B1806F2D70E006FD02C06FEFB3
:1007F0007FEFC5010E94E10F9D878C87E2CFB60194
:1008000080E290E00E9413105A94DECFF50107FDBC
:10081000859107FF81915F01B60190E00E9413105E
:10082000E110EA948C859D8501979D878C87EC85E6
:10083000FD85EF2B59F78CCE843619F0893609F0F7
:1008400074C0350107FF66C0F4E06F0E711CF5013E
:100850006081718182819381102F1F7697FF08C07C
:1008600090958095709561957F4F8F4F9F4F106841
:100870002AE030E0A4010E946410A82EA818BA2C27
:10088000012F16FF0AC00E7FAF1438F414FF04C006
:1008900012FD02C0012F0E7EBF2C04FF8DC0FE0191
:1008A000EA0DF11D8081803309F07FC0097EF02FB1
:1008B000F870EF2E03FD8FC000FF89C0FA2CB5142D
:1008C00010F4F50CFB1804FF8CC0B60180E390E037
:1008D0000E94131002FF09C088E790E001FF02C0E8
:1008E00088E590E0B6010E941310AF1408F485C0AB
:1008F000AA940A2D10E00F5F1F4F080D191DF80173
:1009000082918F01B60190E00E941310801691062B
:10091000B1F71ECEF2E06F0E711CF501608171819E
:10092000072E000C880B990B97CF102F8537A9F451
:100930001F7E2AE030E0350117FF2EC0F4E06F0E75
:10094000711CF5016081718182819381A4010E94F3
:100950006410A82EA8181F7792CF197F8F36C9F080
:1009600040F4883589F0F601868197812F96E2E17F
:1009700016C6803739F08837B1F714FD146020E1CE
:1009800030E0D9CF1061F9CF04FD166020E132E0EC
:10099000D2CF28E030E0CFCFF2E06F0E711CF5012E
:1009A0006081718190E080E0D1CF02FD02C0B394FC
:1009B0007ECFB394B3947BCF802F867809F477CF22
:1009C000F6CFB60180E290E00E941310B394B51404
:1009D000C0F3E12C78CFE52CEB18B51408F473CFF5
:1009E000F8CF802F867809F480CF8BE201FF80E278
:1009F00007FD8DE2B60190E076CFB60180E390E08E
:100A00000E941310FA9471CF8FEF9FEFAFCF24E0C5
:100A1000E12C251508F064CD84E054CD1F920F928F
:100A20000FB60F9211248F9388275A9983958111BD
:100A300007C05A9A8F910F900FBE0F901F90189574
:100A40005A98F8CF1F920F920FB60F9211248F93DE
:100A50009F93AF93BF938091E4018F5F8093E401F4
:100A60008091E401837099F48091E5019091E60111
:100A7000A091E701B091E8010196A11DB11D8093FD
:100A8000E5019093E601A093E701B093E80186B5F4
:100A90008A5F86BDBF91AF919F918F910F900FBEDE
:100AA0000F901F9018950F931F93F8940091E501F4
:100AB0001091E6012091E7013091E8017894600FF0
:100AC000711F821F931F0091E5011091E601209193
:100AD000E7013091E801061717072807390798F34F
:100AE0001F910F9108956CE082E090E00E94D71072
:100AF00063E083E090E00E94D71040E050E0BA014C
:100B00008CE090E00E94E51040E050E0BA0184E003
:100B100090E00E94E51040E050E0BA0180E190E0F2
:100B20000E94E51040E050E0BA0188E090E00E94A9
:100B3000E51040EE58EF6BEC70E984E190E00E9424
:100B4000E51060E088E190E00E94D71065E57AEA60
:100B500090E080E00C94EA1008951F93CF93DF9308
:100B6000EC01162F64EF71E080E090E09CDF112330
:100B700009F1FE0184919091C00095FFFCCF809314
:100B8000C60021968111F3CF8091C00085FFFCCF74
:100B90008DE08093C6008091C00085FFFCCF8AE085
:100BA0008093C60010925C0210925D02DF91CF919B
:100BB0001F9108958881DFCF61E084E992E0CDCF75
:100BC000089540988EBD0DB407FEFDCF6EBD0DB4E7
:100BD00007FEFDCF409A08950F931F93CF93DF93A5
:100BE00001E010E0029711F405E010E0D0E0C0E071
:100BF000C330D10539F060E0C8018C0F9D1FE1DFE3
:100C00002196F6CFDF91CF911F910F91089561E06A
:100C10008FE090E0D6DF68EE73E080E090E043DFA5
:100C200060E08FE090E0CDDF66E08BE090E0C9DF30
:100C300060E089E090E0C5DF81E090E0CDDF82E018
:100C400090E0CADF82E090E00E94C510682F8AE041
:100C500090E0B7DF61E08CE090E0B3CF0895EF92D1
:100C6000FF920F931F93CF93DF938B01EE24E394B6
:100C7000029711F485E0E82ECE2DA0E0DA2FFC2EAD
:100C8000FE18D801EC91EE2399F00E2E000CFF0B0C
:100C9000EB55FE4F6491F80181818E3219F40F5F9C
:100CA0001F4F6068CE018DDF0F5F1F4F2196E7CF8A
:100CB000F2E0FF1530F060E0CE0183DFF39421967F
:100CC000F7CFCDB7DEB7E6E076C44F925F926F9272
:100CD0007F92AF92BF92CF92DF92EF92FF920F93EB
:100CE0001F93CF93DF93CDB7DEB764970FB6F89419
:100CF000DEBF0FBECDBF5C016B01FC0141805280A5
:100D0000638074808CE090E06230710511F084E0C3
:100D100090E00E94CD109B01AC01C301B2015BD4F5
:100D2000162F072FF82EE92EF50180818E7F60E0C7
:100D300071E009F047C020E030E040E251ECD8011A
:100D4000F7016B2F7A2F8F2F9E2FA9D464E071E0CB
:100D50001816C4F520E030E04AE754E4D801F70162
:100D60006B2F7A2F8F2F9E2F81D568E071E087FF40
:100D700029C020E030E048EC52E4D801F7016B2FA5
:100D80007A2F8F2F9E2F72D59E012F5F3F4F5901D3
:100D900087FD2FC0A8019701652F742F832F922FF5
:100DA00082D47F936F938CE091E09F938F93BF9257
:100DB000AF920E9443100F900F900F900F900F90E2
:100DC0000F90B501C6014BDF64960FB6F894DEBFF5
:100DD0000FBECDBFDF91CF911F910F91FF90EF908C
:100DE000DF90CF90BF90AF907F906F905F904F90CB
:100DF0000895EF92FF920F931F938FE091E09F93DE
:100E00008F933F932F930E9443100FB6F894DEBF49
:100E10000FBECDBFD6CF9C012A984150042E000CA6
:100E2000550B47FD10C0F901E40FF51F80818EBD01
:100E30000DB407FEFDCF9EB5FB01E40FF51F9083B7
:100E400041505109EECF2A9A0895AEE0B0E0EAE2AF
:100E5000F7E099C38E877D876C875B874A873987E0
:100E6000288747E0BE016F5F7F4FCE010896D3DF32
:100E700069817A818B819C812E96E2E0A0C3A8E0F3
:100E8000B0E0E4E4F7E07FC388877F836E834D831F
:100E900044E0BE016F5F7F4FCE010596BCDF8981C4
:100EA0002896E2E08CC340E070E060E083E0E7DF9A
:100EB00086FFF9CF0895A4E6B0E0E0E6F7E061C36D
:100EC000182F6AE071E090E080E00E94CB0F00975D
:100ED00019F584E090E0143011F08CE090E00E946D
:100EE000CD109F938F937F936F9385E191E09F93B4
:100EF0008F938E010F5F1F4F1F930F930E9443101C
:100F000060E0C8012ADE0FB6F894DEBF0FBECDBF89
:100F1000CC59DF4FE4E051C370E060E00ED5AB0187
:100F2000BC0184E090E0143011F08CE090E00E946D
:100F3000E51042DEEDCFA4E6B0E0E0EAF7E021C341
:100F4000182F6AE071E090E080E00E94CB0F0097DC
:100F500019F588E090E0183011F080E190E00E94EF
:100F6000CD109F938F937F936F938AE191E09F932E
:100F70008F938E010F5F1F4F1F930F930E9443109B
:100F800060E0C801EADD0FB6F894DEBF0FBECDBF4A
:100F9000CC59DF4FE4E011C350E040E070E060E086
:100FA00011D6AB01BC0188E090E0183011F080E16F
:100FB00090E00E94E51000DEEBCF88E190E00E9417
:100FC000C510813031F0823041F0109281005A9882
:100FD0000895109281005A9A08958DE080938100BF
:100FE0000895CF93DF936AE071E090E080E0D3D77B
:100FF000EC0161E080E692E0209709F1BE0180E219
:1010000091E0CCD761E0892B71F0BE0183E291E0E1
:10101000C5D760E0892B39F0BE0187E291E0BED7E9
:10102000892B51F462E088E190E00E94D710C5DF7F
:10103000C3DDDF91CF91089561E085E492E08DDD1D
:10104000F8CFCF93DF936AE071E090E080E0A3D720
:10105000EC0161E080E692E0209739F1BE018DE27B
:1010600091E09CD761E0892BA9F0BE0181E391E07A
:1010700095D762E0892B71F0BE0186E391E08ED7AF
:1010800063E0892B39F0BE018BE391E087D7892B90
:1010900049F460E083E090E00E94D7108DDDDF919D
:1010A000CF91089561E085E492E057DDF8CFA6E99D
:1010B000B0E0ECE5F8E061C27C0180915D0288233C
:1010C00009F496C06AE071E088EF91E064D78C0182
:1010D000BC0180E491E062D7892B29F461E08EEEB7
:1010E00092E03BDD85C0B80183E491E057D7892BBE
:1010F00021F461E085EB92E0F4CFB80188E491E05F
:101100004DD7892B21F461E089E992E0EACFB8015B
:101110008CE491E043D7892B21F461E085E292E0F1
:10112000E0CFB80181E591E039D7892B09F5F89432
:101130008091E5019091E601A091E701B091E8016D
:101140007894BF93AF939F938F9388E591E09F939B
:101150008F9389EE91E09F938F9395D760E089EE0E
:1011600091E0FBDC0FB6F894DEBF0FBECDBF40C0F0
:10117000B80181E691E012D7892B91F58CE090E0DF
:101180000E94CD10F701218132814381548123D205
:10119000162F072FD82EC92E84E090E0FED7F70136
:1011A00020811F922F93CF92DF920F931F9325855B
:1011B0001F922F9326853785408951890CD29F93A2
:1011C0008F937F936F938AE691E09F938F938E0125
:1011D0000F5F1F4F1F930F9356D760E0C801C1CF19
:1011E000B8018FEA91E0DAD6892B31F484E063DE2E
:1011F000CA56DF4FE8E0DDC1B80184EB91E0CED6FE
:10120000892B11F48CE0F3CFB80189EB91E0C6D6BD
:10121000892B19F488E08FDEEBCFB80182EC91E0E6
:10122000BDD6892B11F480E1F6CFB8018BEC91E0AB
:10123000B5D6892B91F484E190E0AFD79F938F933B
:101240007F936F938AE191E09F938F938E010F5F5D
:101250001F4F1F930F9317D7C0CFB80182ED91E0B6
:101260009DD6892B11F4BDDEC3CFB80188ED91E086
:1012700095D6892B11F4E5DEBBCF61E08BE792E0D8
:1012800030CFCF93FC01128E138E148E158E90E00A
:1012900080E088D785359A4A09F025DC579A81E5A0
:1012A0008CBD8DB581608DBD83E390E09093C500CA
:1012B0008093C4008091C10088618093C10086E062
:1012C0008093C2008091C10080688093C100229AFF
:1012D0002A9A389A409A2498239A259A529A1092D8
:1012E000800010928100109282001092850010926E
:1012F000840082E49FE09093890080938800C2E09C
:10130000C0936F005ADE1092E5011092E601109230
:10131000E7011092E8011092E40114BCC5BD81E020
:1013200080936E0074DCCF910895B0E0A0E0EAE90C
:10133000F9E023C1EC0178945F9864E670E080E006
:1013400090E0B1DB5F9A6AEF70E080E090E0ABDBA9
:1013500020E030EA4FE058EE64E072E082E075DDB4
:1013600020E030EC45E950E66CE072E082E06DDDB3
:1013700020E030EC45E950E66CE172E082E065DDAA
:1013800040E160EF70E082E07ADD40E06FEF70E016
:1013900082E075DD88E19FE00FB6F894A895809310
:1013A00060000FBE909360008E01035F1F4F4A8D57
:1013B0005B8D6C8D7D8D411551056105710509F0C1
:1013C00059C044E870E060E082E059DD6CDD20E067
:1013D00030E0A9016CE170E083E037DD6B017C0156
:1013E0009927E7FC5FC092D120E030E040E85AE363
:1013F00041D269837A838B839C83F88248E870E0CA
:1014000060E082E03CDD4FDD20E030E0A9016CE2ED
:1014100070E083E01ADD6B017C019927E7FC9F6F88
:1014200075D120E030E040E85AE324D26E877F8710
:10143000888B998BFD86F8948091E5019091E60167
:10144000A091E701B091E80178948A8F9B8FAC8FCF
:10145000BD8F83E090E099D6F82E81FF25C062E031
:1014600070E0CE0132DCF0FE23C061E070E0C80124
:101470002CDC14C0F8948091E5019091E601A091D4
:10148000E701B091E8017894841B950BA60BB70B8C
:10149000893E9340A105B10508F093CFCE0107DE48
:1014A000A89585CF9F6F9FCF82E090E095DBDBCF43
:1014B00081E090E091DBF2CFAEE1B0E0E1E6FAE06E
:1014C00062C014BE0FB6F894A89580916000886140
:1014D00080936000109260000FBEF894CE010196D8
:1014E000D0DECE01019621DF1F920F920FB60F9230
:1014F00011242F938F939F93EF93FF938091C600B6
:10150000E0915C02E436B8F490915D02911113C051
:101510008A30D9F48E2F90E0EE2331F0FC01E950AF
:10152000FE4F20812D3019F088509E4FFC01108213
:1015300081E080935D02FF91EF919F918F912F91B8
:101540000F900FBE0F901F9018958E3719F41092C0
:101550005C02F1CF91E09E0F90935C02F0E0E850C6
:10156000FE4F8083E8CF2F923F924F925F926F920F
:101570007F928F929F92AF92BF92CF92DF92EF9223
:10158000FF920F931F93CF93DF93CDB7DEB7CA1BA4
:10159000DB0B0FB6F894DEBF0FBECDBF09942A88CF
:1015A000398848885F846E847D848C849B84AA8477
:1015B000B984C884DF80EE80FD800C811B81AA8104
:1015C000B981CE0FD11D0FB6F894DEBF0FBECDBFCF
:1015D000ED0108955058BB27AA270ED00DC1FED0AB
:1015E00030F003D120F031F49F3F11F41EF4F3C02A
:1015F0000EF4E095E7FBE9C0E92F0FD180F3BA17AD
:10160000620773078407950718F071F49EF527C1E8
:101610000EF4E0950B2EBA2FA02D0B01B90190010D
:101620000C01CA01A0011124FF27591B99F0593F51
:1016300050F4503E68F11A16F040A22F232F342F99
:101640004427585FF3CF469537952795A795F040E7
:101650005395C9F77EF41F16BA0B620B730B840BFC
:10166000BAF09150A1F0FF0FBB1F661F771F881FB4
:10167000C2F70EC0BA0F621F731F841F48F487950C
:1016800077956795B795F7959E3F08F0B3CF9395FB
:10169000880F08F09927EE0F97958795089571D0D8
:1016A00008F481E0089504D06894B111D9C0089578
:1016B000BCD088F09F5790F0B92F9927B751A0F070
:1016C000D1F0660F771F881F991F1AF0BA95C9F7D6
:1016D00012C0B13081F0C3D0B1E00895C0C0672F0F
:1016E000782F8827B85F39F0B93FCCF38695779586
:1016F0006795B395D9F73EF490958095709561956F
:101700007F4F8F4F9F4F0895E89409C097FB3EF499
:1017100090958095709561957F4F8F4F9F4F99233E
:10172000A9F0F92F96E9BB279395F69587957795BC
:101730006795B795F111F8CFFAF4BB0F11F460FF7C
:101740001BC06F5F7F4F8F4F9F4F16C0882311F0D4
:1017500096E911C0772321F09EE8872F762F05C0E8
:10176000662371F096E8862F70E060E02AF09A9583
:10177000660F771F881FDAF7880F9695879597F978
:101780000895990F0008550FAA0BE0E8FEEF161612
:101790001706E807F907C0F012161306E407F50765
:1017A00098F0621B730B840B950B39F40A2661F0D9
:1017B000232B242B252B21F408950A2609F4A1407C
:1017C000A6958FEF811D811D089597F99F6780E889
:1017D00070E060E008959FEF80EC089500240A9483
:1017E0001616170618060906089500240A941216FC
:1017F0001306140605060895092E0394000C11F42F
:10180000882352F0BB0F40F4BF2B11F460FF04C0DB
:101810006F5F7F4F8F4F9F4F089557FD9058440F34
:10182000551F59F05F3F71F04795880F97FB991F3F
:1018300061F09F3F79F087950895121613061406FC
:10184000551FF2CF4695F1DF08C016161706180689
:10185000991FF1CF86957105610508940895E89464
:10186000BB2766277727CB0197F908958ADF08F40D
:101870008FEF08950BD0C0CFB1DF28F0B6DF18F09E
:10188000952309F0A2CFA7CF1124EACFC6DFA0F39A
:10189000959FD1F3950F50E0551F629FF001729F05
:1018A000BB27F00DB11D639FAA27F00DB11DAA1F24
:1018B000649F6627B00DA11D661F829F2227B00D71
:1018C000A11D621F739FB00DA11D621F839FA00DFC
:1018D000611D221F749F3327A00D611D231F849F4C
:1018E000600D211D822F762F6A2F11249F575040A3
:1018F0008AF0E1F088234AF0EE0FFF1FBB1F661F3E
:10190000771F881F91505040A9F79E3F510570F0F6
:101910005CCFA6CF5F3FECF3983EDCF386957795DE
:101920006795B795F795E7959F5FC1F7FE2B880FF1
:10193000911D9695879597F90895B0E0A0E0E2EAA9
:10194000FCE017CE5C017B016115710519F0DB012C
:101950008D939C9385010F5F1F4FF501D0818D2FD3
:1019600090E0EED26C01892BA9F5DD32A9F50F5F6D
:101970001F4FD5011196DC91C1E05801F1E0AF1A7B
:10198000B10843E050E068E770E0C501E1D2892B7F
:1019900061F5680182E0C80ED11C45E050E063E7C4
:1019A00070E0C601D5D2892B21F4680197E0C90EF9
:1019B000D11CE114F10419F0D701CD92DC9260E062
:1019C00070E080E89FEFC111F9C060E070E080E84E
:1019D0009FE7F4C05801BECFDB3229F485010E5FCA
:1019E0001F4FF501D181C0E0C8CF43E050E060E770
:1019F00070E0C501ADD2892BE9F0F80110E000E0FC
:101A000020E030E0A9015F01B0ED8B2E8D0E89E062
:101A10008815C0F19C2E689491F88C2F8870C2FFB5
:101A200016C0811102C00F5F1F4F3196D501DC91A6
:101A3000C92DE9CFE114F10429F00E5F1F4FF70122
:101A40001183008360E070E080EC9FE7B7C08823DB
:101A500011F001501109A5E0B0E000D49B01AC01E8
:101A6000220F331F441F551F280D311D411D511DCD
:101A7000283999E93907490799E15907B0F2C66051
:101A80009C2ED3CFAEEF8A1206C0C3FD3CC09C2E65
:101A9000689493F8CACFDF7DD534A9F580818D3263
:101AA00039F4C061DF011296818162E070E006C006
:101AB000DF018B32C1F3119661E070E080535D016C
:101AC000A61AB70A8A30F8F4E0E8CE16ECE0DE0693
:101AD0005CF4B601660F771F660F771FC60ED71E20
:101AE000CC0CDD1CC80ED11C5D01FFEFAF1ABF0A84
:101AF0008C9180538A3098F1C4FF03C0D194C19473
:101B0000D1080C0D1D1DC1FF09C0E114F10431F015
:101B100081E0A81AB108D701AD92BC92CA01B901FF
:101B2000F3DDC370C33009F490584B015C0120E031
:101B300030E0A901B4DD882309F43EC0C7EAD0E053
:101B400017FF05C0119501951109CFE8D0E06E018E
:101B5000B8E1CB1AD10880E2E82EF12C0EC0D501F5
:101B6000B3CFFE0125913591459154910E191F096E
:101B7000C501B4017FDE4B015C01D501C4010E1526
:101B80001F057CF72497F594E794CC16DD06A9F79A
:101B90008A2F880F8B2F881F8F3F41F020E030E085
:101BA000A901C501B4017BDD811106C082E290E08C
:101BB00090935F0280935E02C501B401CDB7DEB79A
:101BC000ECE0F3CCB0E0A0E0E7EEFDE0CDCC5C01D2
:101BD0006B017A016115710519F0FB019183808316
:101BE000E114F10449F0C7010297839728F060E0FF
:101BF00070E0CB019AC05E01E5012196F5011081EC
:101C0000812F90E09DD1892BB1F71D3209F055C08D
:101C10002196F501118101E0E114F10409F4ABC052
:101C2000F0E1EF16F10409F08CC0103341F4888123
:101C30008F7D883509F081C0198122960260E0E12C
:101C4000EE2EF12C88248A94982CA82CFFE0BF2E2D
:101C500020E060E070E0CB0127010F2C000C66084B
:101C60007708FE0150ED352E310E39E0331538F48A
:101C70003FEB310F3A3198F549EC342E310E3E14DA
:101C80001F04B4F52F3FB1F086169706A806B906D3
:101C900068F1A3019201B1D2232D30E050E040E081
:101CA000620F731F841F951F6217730784079507C0
:101CB000E8F021E021961081D4CF1B3221F4E50118
:101CC0002296F501118100E0A7CF78E0E72EF12CF4
:101CD00088248A94982CA82C6FE1B62EB9CF3FE9BE
:101CE000310F3A3128F439EA332EC8CF2FEFE2CF43
:101CF000C114D10431F02223E1F02197F601D18300
:101D0000C08300FF07C090958095709561957F4FC7
:101D10008F4F9F4F2F3F49F482E290E090935F02F4
:101D200080935E026FEF7FEFCB01CDB7DEB7E1E1CD
:101D300037CC01FFE6CF2297E1CF10E3E114F104A5
:101D400021F23AE0E316F104E1F080E1E816F10453
:101D500009F475CFE8E0EE16F10409F4B9CF6FEF9E
:101D60007FEFCB0197010F2C000C440B550B54D285
:101D700049015A016DCF103309F459CF9AE0E92E89
:101D8000F12C89E9882E982CA82C89E1B82E60CFF7
:101D9000283008F027E03327DA01990F311D87FD3D
:101DA000916000966105710539F432602E5F3D93B4
:101DB00030E32A95E1F708959F3F30F080387105B0
:101DC000610509F03C5F3C5F3D93913008F080680D
:101DD000911DDF93CF931F930F93FF92EF92192FD3
:101DE000987F9695E92F96959695E90FFF27EB5FDB
:101DF000FE4F99273327EE24FF24A701E701059022
:101E00000894079428F4360FE71EF81E491F511D49
:101E1000660F771F881F991F0694A1F705900794F6
:101E200028F4E70EF81E491F561FC11D770F881FA3
:101E3000991F661F0694A1F70590079428F4F80EE1
:101E4000491F561FC71FD11D880F991F661F771F77
:101E50000694A1F70590079420F4490F561FC71F59
:101E6000D81F990F661F771F881F0694A9F78491C2
:101E70001095177041F0D695C79557954795F794EB
:101E8000E7941A95C1F7EBEAF0E068941590159184
:101E900035916591959105907FE27395E118F10A6E
:101EA000430B560BC90BD009C0F7E10CF11E431FC1
:101EB000561FC91FD01D7EF4703311F48A95E6CFEA
:101EC000E894015030F0080F0AF40027021708F4D4
:101ED000202F2395022F7A3328F079E37D932A95DA
:101EE000E9F710C07D932A9589F606949795679532
:101EF000379517951794E118F10A430B560BC90B48
:101F0000D00998F023957E9173957A3308F070E3A9
:101F10007C932013B8F77E9170617D9330F08395A8
:101F200071E37D9370E32A95E1F71124EF90FF9020
:101F30000F911F91CF91DF91992787FD909508957B
:101F4000911120C1803219F089508550D0F7089541
:101F5000FB01DC014150504088F08D9181341CF030
:101F60008B350CF4805E659161341CF06B350CF49C
:101F7000605E861B611171F3990B0895881BFCCF7D
:101F8000FC010590615070400110D8F78095909544
:101F90008E0F9F1F089542EE51E01EC0FB01DC0131
:101FA0008D9181341CF08B350CF4805E619161342D
:101FB0001CF06B350CF4605E861B611189F3990B84
:101FC0000895FC016150704001900110D8F7809590
:101FD00090958E0F9F1F0895FA01A191B0810097EF
:101FE00019F41097E1F0CD01DC01CD010D90002036
:101FF00011F4C00113C0FB012191222319F0201517
:10200000D9F7F3CFFB012191201519F41E921196F7
:1020100006C02223C1F70D900020A1F7D001FA01DC
:10202000A193B08308950F931F93CF93DF93182F3D
:10203000092FEB018B8181FD09C01FEF0FEF812F6D
:10204000902FDF91CF911F910F91089582FF14C0BF
:102050002E813F818C819D81281739073CF4E881CE
:10206000F981CF0101969983888310838E819F81A6
:1020700001969F838E83E3CFE885F985812F0995AB
:10208000892BA1F3DACFAEE0B0E0E8E4F0E179CA61
:102090000D891E8986E08C831A8309838FEF9FE761
:1020A0009E838D83AE01475E5F4F6F89788DCE0131
:1020B00001960E94AE012F813885020F131FF8018F
:1020C00010822E96E4E079CAFA01AA27283051F14D
:1020D000203181F1E8946F936E7F6E5F7F4F8F4F59
:1020E0009F4FAF4FB1E03ED0B4E03CD0670F781FB8
:1020F000891F9A1FA11D680F791F8A1F911DA11D9D
:102100006A0F711D811D911DA11D20D009F46894D5
:102110003F912AE0269F11243019305D3193DEF67D
:10212000CF010895462F4770405D4193B3E00FD033
:10213000C9F7F6CF462F4F70405D4A3318F0495D1E
:1021400031FD4052419302D0A9F7EACFB4E0A69501
:102150009795879577956795BA95C9F70097610523
:10216000710508959B01AC010A2E06945795479579
:1021700037952795BA95C9F7620F731F841F951F6E
:10218000A01D0895992788270895F999FECF92BD3B
:1021900081BDF89A992780B50895A6E1B0E044E0A2
:1021A00050E01DC0A8E1B0E042E050E018C0262F8A
:1021B000F999FECF1FBA92BD81BD20BD0FB6F8942C
:1021C000FA9AF99A0FBE01960895242FF1DF252F70
:1021D000EFDF00C0ECDF272FEBCFDC01CB01FC01F0
:1021E000F999FECF06C0F2BDE1BDF89A319600B470
:1021F0000D9241505040B8F70895DB018F939F93A3
:102200002DD0BF91AF91A29F800D911DA39F900DE6
:10221000B29F900D11240895A1E21A2EAA1BBB1B98
:10222000FD010DC0AA1FBB1FEE1FFF1FA217B307A2
:10223000E407F50720F0A21BB30BE40BF50B661FB8
:10224000771F881F991F1A9469F76095709580957C
:1022500090959B01AC01BD01CF01089509D0A59FC8
:10226000900DB49F900DA49F800D911D1124089591
:10227000A29FB001B39FC001A39F700D811D1124C7
:10228000911DB29F700D811D1124911D0895F89428
:02229000FFCF7E
:10229200457272004C4F20004849200025640025F9
:1022A200342E316600222566220022256C7522001A
:1022B2004F4E004F464600464C415348005245445B
:1022C20000424C554500424F5448004E4F4E450087
:1022D200494400434150530056455200434F505920
:1022E20000555054494D45004F4B3A256C750D0A27
:1022F2000052454144494E4753007B227265642295
:102302003A7B2276616C7565223A222566222C225E
:10231200636F6465223A222575227D2C22626C75D8
:1023220065223A7B2276616C7565223A2225662205
:102332002C22636F6465223A222575227D7D00522C
:1023420043414C004243414C005243414C444154AE
:1023520045004243414C4441544500534552494192
:102362004C00414C41524D00444953504C41595349
:02237200000069
:00000001FF
